{
  "_format": "hh-sol-artifact-1",
  "contractName": "Bank",
  "sourceName": "contracts/Bank.sol",
  "abi": [
    {
      "inputs": [
        {
          "internalType": "contract DaiToken",
          "name": "_daiToken",
          "type": "address"
        }
      ],
      "stateMutability": "nonpayable",
      "type": "constructor"
    },
    {
      "inputs": [
        {
          "internalType": "address",
          "name": "",
          "type": "address"
        }
      ],
      "name": "balances",
      "outputs": [
        {
          "internalType": "uint256",
          "name": "",
          "type": "uint256"
        }
      ],
      "stateMutability": "view",
      "type": "function"
    },
    {
      "inputs": [],
      "name": "daiToken",
      "outputs": [
        {
          "internalType": "contract DaiToken",
          "name": "",
          "type": "address"
        }
      ],
      "stateMutability": "view",
      "type": "function"
    },
    {
      "inputs": [
        {
          "internalType": "uint256",
          "name": "_amount",
          "type": "uint256"
        }
      ],
      "name": "depositRewards",
      "outputs": [],
      "stateMutability": "nonpayable",
      "type": "function"
    },
    {
      "inputs": [],
      "name": "name",
      "outputs": [
        {
          "internalType": "string",
          "name": "",
          "type": "string"
        }
      ],
      "stateMutability": "view",
      "type": "function"
    },
    {
      "inputs": [
        {
          "internalType": "uint256",
          "name": "_amount",
          "type": "uint256"
        }
      ],
      "name": "stakeTokens",
      "outputs": [],
      "stateMutability": "nonpayable",
      "type": "function"
    },
    {
      "inputs": [],
      "name": "unStakeTokens",
      "outputs": [],
      "stateMutability": "nonpayable",
      "type": "function"
    },
    {
      "inputs": [],
      "name": "withdrawByBank",
      "outputs": [],
      "stateMutability": "nonpayable",
      "type": "function"
    }
  ],
  "bytecode": "0x60806040523480156200001157600080fd5b5060405162001fb638038062001fb68339818101604052810190620000379190620001e6565b6040518060400160405280600481526020017f42616e6b0000000000000000000000000000000000000000000000000000000081525060009080519060200190620000849291906200011f565b5033600160006101000a81548173ffffffffffffffffffffffffffffffffffffffff021916908373ffffffffffffffffffffffffffffffffffffffff16021790555080600260006101000a81548173ffffffffffffffffffffffffffffffffffffffff021916908373ffffffffffffffffffffffffffffffffffffffff160217905550426003819055506203f48060048190555050620002d9565b8280546200012d906200025a565b90600052602060002090601f0160209004810192826200015157600085556200019d565b82601f106200016c57805160ff19168380011785556200019d565b828001600101855582156200019d579182015b828111156200019c5782518255916020019190600101906200017f565b5b509050620001ac9190620001b0565b5090565b5b80821115620001cb576000816000905550600101620001b1565b5090565b600081519050620001e081620002bf565b92915050565b600060208284031215620001f957600080fd5b60006200020984828501620001cf565b91505092915050565b60006200021f826200023a565b9050919050565b6000620002338262000212565b9050919050565b600073ffffffffffffffffffffffffffffffffffffffff82169050919050565b600060028204905060018216806200027357607f821691505b602082108114156200028a576200028962000290565b5b50919050565b7f4e487b7100000000000000000000000000000000000000000000000000000000600052602260045260246000fd5b620002ca8162000226565b8114620002d657600080fd5b50565b611ccd80620002e96000396000f3fe608060405234801561001057600080fd5b506004361061007d5760003560e01c80637547c7a31161005b5780637547c7a3146100da5780637896bf1d146100f65780638bdf67f214610100578063be22f5461461011c5761007d565b806306fdde03146100825780631639c43a146100a057806327e235e3146100aa575b600080fd5b61008a61013a565b60405161009791906117d1565b60405180910390f35b6100a86101c8565b005b6100c460048036038101906100bf91906115c8565b6104bf565b6040516100d19190611883565b60405180910390f35b6100f460048036038101906100ef919061161a565b6104d7565b005b6100fe610697565b005b61011a6004803603810190610115919061161a565b61104c565b005b610124611489565b60405161013191906117b6565b60405180910390f35b6000805461014790611a98565b80601f016020809104026020016040519081016040528092919081815260200182805461017390611a98565b80156101c05780601f10610195576101008083540402835291602001916101c0565b820191906000526020600020905b8154815290600101906020018083116101a357829003601f168201915b505050505081565b600160009054906101000a900473ffffffffffffffffffffffffffffffffffffffff1673ffffffffffffffffffffffffffffffffffffffff163373ffffffffffffffffffffffffffffffffffffffff161461022257600080fd5b6000600260009054906101000a900473ffffffffffffffffffffffffffffffffffffffff1673ffffffffffffffffffffffffffffffffffffffff166370a08231306040518263ffffffff1660e01b815260040161027f919061173b565b60206040518083038186803b15801561029757600080fd5b505afa1580156102ab573d6000803e3d6000fd5b505050506040513d601f19601f820116820180604052508101906102cf9190611643565b1415610310576040517f08c379a000000000000000000000000000000000000000000000000000000000815260040161030790611863565b60405180910390fd5b6000600a5414801561033b57506003546004805461032e9190611941565b61033891906118ba565b42115b156104bd57600260009054906101000a900473ffffffffffffffffffffffffffffffffffffffff1673ffffffffffffffffffffffffffffffffffffffff1663a9059cbb600160009054906101000a900473ffffffffffffffffffffffffffffffffffffffff16600260009054906101000a900473ffffffffffffffffffffffffffffffffffffffff1673ffffffffffffffffffffffffffffffffffffffff166370a08231306040518263ffffffff1660e01b81526004016103fc919061173b565b60206040518083038186803b15801561041457600080fd5b505afa158015610428573d6000803e3d6000fd5b505050506040513d601f19601f8201168201806040525081019061044c9190611643565b6040518363ffffffff1660e01b815260040161046992919061178d565b602060405180830381600087803b15801561048357600080fd5b505af1158015610497573d6000803e3d6000fd5b505050506040513d601f19601f820116820180604052508101906104bb91906115f1565b505b565b600c6020528060005260406000206000915090505481565b6004546003546104e791906118ba565b4210610528576040517f08c379a000000000000000000000000000000000000000000000000000000000815260040161051f90611823565b60405180910390fd5b600260009054906101000a900473ffffffffffffffffffffffffffffffffffffffff1673ffffffffffffffffffffffffffffffffffffffff166323b872dd3330846040518463ffffffff1660e01b815260040161058793929190611756565b602060405180830381600087803b1580156105a157600080fd5b505af11580156105b5573d6000803e3d6000fd5b505050506040513d601f19601f820116820180604052508101906105d991906115f1565b5080600c60003373ffffffffffffffffffffffffffffffffffffffff1673ffffffffffffffffffffffffffffffffffffffff1681526020019081526020016000205461062591906118ba565b600c60003373ffffffffffffffffffffffffffffffffffffffff1673ffffffffffffffffffffffffffffffffffffffff168152602001908152602001600020819055508060095461067691906118ba565b600981905550600a600081548092919061068f90611aca565b919050555050565b60035460026004546106a99190611941565b6106b391906118ba565b42116106be57600080fd5b6000600c60003373ffffffffffffffffffffffffffffffffffffffff1673ffffffffffffffffffffffffffffffffffffffff1681526020019081526020016000205411610740576040517f08c379a000000000000000000000000000000000000000000000000000000000815260040161073790611843565b60405180910390fd5b60035460026004546107529190611941565b61075c91906118ba565b421115610946576000600954600654600c60003373ffffffffffffffffffffffffffffffffffffffff1673ffffffffffffffffffffffffffffffffffffffff168152602001908152602001600020546107b59190611941565b6107bf9190611910565b9050600260009054906101000a900473ffffffffffffffffffffffffffffffffffffffff1673ffffffffffffffffffffffffffffffffffffffff1663a9059cbb3383600c60003373ffffffffffffffffffffffffffffffffffffffff1673ffffffffffffffffffffffffffffffffffffffff1681526020019081526020016000205461084b91906118ba565b6040518363ffffffff1660e01b815260040161086892919061178d565b602060405180830381600087803b15801561088257600080fd5b505af1158015610896573d6000803e3d6000fd5b505050506040513d601f19601f820116820180604052508101906108ba91906115f1565b506108fa6040518060400160405280601381526020017f72657761726420617420706f6f6c203120257300000000000000000000000000815250826114af565b600354600360045461090c9190611941565b61091691906118ba565b42101561093a57600a600081548092919061093090611a6e565b9190505550610944565b600a54600a819055505b505b6109876040518060400160405280601b81526020017f7374616b65727320257320617420656e64206f6620706f6f6c20310000000000815250600a546114af565b60035460036004546109999190611941565b6109a391906118ba565b421115610c82576109eb6040518060400160405280601881526020017f7374616b657273206174206f6620706f6f6c2032202025730000000000000000815250600a546114af565b6001600a541115610b49576000600954600754600c60003373ffffffffffffffffffffffffffffffffffffffff1673ffffffffffffffffffffffffffffffffffffffff16815260200190815260200160002054610a489190611941565b610a529190611910565b9050600260009054906101000a900473ffffffffffffffffffffffffffffffffffffffff1673ffffffffffffffffffffffffffffffffffffffff1663a9059cbb33836040518363ffffffff1660e01b8152600401610ab192919061178d565b602060405180830381600087803b158015610acb57600080fd5b505af1158015610adf573d6000803e3d6000fd5b505050506040513d601f19601f82011682018060405250810190610b0391906115f1565b50610b436040518060400160405280601d81526020017f72657761726420617420706f6f6c2032206e6f7420616c6f6e65202573000000815250826114af565b50610c41565b60006007549050600260009054906101000a900473ffffffffffffffffffffffffffffffffffffffff1673ffffffffffffffffffffffffffffffffffffffff1663a9059cbb33836040518363ffffffff1660e01b8152600401610bad92919061178d565b602060405180830381600087803b158015610bc757600080fd5b505af1158015610bdb573d6000803e3d6000fd5b505050506040513d601f19601f82011682018060405250810190610bff91906115f1565b50610c3f6040518060400160405280601981526020017f72657761726420617420706f6f6c203220616c6f6e6520257300000000000000815250826114af565b505b60035460048054610c529190611941565b610c5c91906118ba565b421115610c8057600a6000815480929190610c7690611a6e565b9190505550610c81565b5b5b610cc36040518060400160405280601081526020017f706f6f6c33207374616b65727320257300000000000000000000000000000000815250600a546114af565b60035460048054610cd49190611941565b610cde91906118ba565b421115610f7d57610d266040518060400160405280601481526020017f7374616b65727320257320617420706f6f6c2033000000000000000000000000815250600a546114af565b6001600a541115610e84576000600954600854600c60003373ffffffffffffffffffffffffffffffffffffffff1673ffffffffffffffffffffffffffffffffffffffff16815260200190815260200160002054610d839190611941565b610d8d9190611910565b9050610dce6040518060400160405280601d81526020017f72657761726420617420706f6f6c2033206e6f7420616c6f6e65202573000000815250826114af565b600260009054906101000a900473ffffffffffffffffffffffffffffffffffffffff1673ffffffffffffffffffffffffffffffffffffffff1663a9059cbb33836040518363ffffffff1660e01b8152600401610e2b92919061178d565b602060405180830381600087803b158015610e4557600080fd5b505af1158015610e59573d6000803e3d6000fd5b505050506040513d601f19601f82011682018060405250810190610e7d91906115f1565b5050610f7c565b60006008549050610eca6040518060400160405280601981526020017f72657761726420617420706f6f6c203320616c6f6e6520257300000000000000815250826114af565b600260009054906101000a900473ffffffffffffffffffffffffffffffffffffffff1673ffffffffffffffffffffffffffffffffffffffff1663a9059cbb33836040518363ffffffff1660e01b8152600401610f2792919061178d565b602060405180830381600087803b158015610f4157600080fd5b505af1158015610f55573d6000803e3d6000fd5b505050506040513d601f19601f82011682018060405250810190610f7991906115f1565b50505b5b600c60003373ffffffffffffffffffffffffffffffffffffffff1673ffffffffffffffffffffffffffffffffffffffff16815260200190815260200160002054600c60003373ffffffffffffffffffffffffffffffffffffffff1673ffffffffffffffffffffffffffffffffffffffff16815260200190815260200160002054611007919061199b565b600c60003373ffffffffffffffffffffffffffffffffffffffff1673ffffffffffffffffffffffffffffffffffffffff16815260200190815260200160002081905550565b600160009054906101000a900473ffffffffffffffffffffffffffffffffffffffff1673ffffffffffffffffffffffffffffffffffffffff163373ffffffffffffffffffffffffffffffffffffffff16146110a657600080fd5b600260009054906101000a900473ffffffffffffffffffffffffffffffffffffffff1673ffffffffffffffffffffffffffffffffffffffff166323b872dd600160009054906101000a900473ffffffffffffffffffffffffffffffffffffffff1630846040518463ffffffff1660e01b815260040161112793929190611756565b602060405180830381600087803b15801561114157600080fd5b505af1158015611155573d6000803e3d6000fd5b505050506040513d601f19601f8201168201806040525081019061117991906115f1565b50600260009054906101000a900473ffffffffffffffffffffffffffffffffffffffff1673ffffffffffffffffffffffffffffffffffffffff166370a08231306040518263ffffffff1660e01b81526004016111d5919061173b565b60206040518083038186803b1580156111ed57600080fd5b505afa158015611201573d6000803e3d6000fd5b505050506040513d601f19601f820116820180604052508101906112259190611643565b60058190555060146064600260009054906101000a900473ffffffffffffffffffffffffffffffffffffffff1673ffffffffffffffffffffffffffffffffffffffff166370a08231306040518263ffffffff1660e01b815260040161128a919061173b565b60206040518083038186803b1580156112a257600080fd5b505afa1580156112b6573d6000803e3d6000fd5b505050506040513d601f19601f820116820180604052508101906112da9190611643565b6112e49190611910565b6112ee9190611941565b600681905550601e6064600260009054906101000a900473ffffffffffffffffffffffffffffffffffffffff1673ffffffffffffffffffffffffffffffffffffffff166370a08231306040518263ffffffff1660e01b8152600401611353919061173b565b60206040518083038186803b15801561136b57600080fd5b505afa15801561137f573d6000803e3d6000fd5b505050506040513d601f19601f820116820180604052508101906113a39190611643565b6113ad9190611910565b6113b79190611941565b60078190555060326064600260009054906101000a900473ffffffffffffffffffffffffffffffffffffffff1673ffffffffffffffffffffffffffffffffffffffff166370a08231306040518263ffffffff1660e01b815260040161141c919061173b565b60206040518083038186803b15801561143457600080fd5b505afa158015611448573d6000803e3d6000fd5b505050506040513d601f19601f8201168201806040525081019061146c9190611643565b6114769190611910565b6114809190611941565b60088190555050565b600260009054906101000a900473ffffffffffffffffffffffffffffffffffffffff1681565b61154782826040516024016114c59291906117f3565b6040516020818303038152906040527f9710a9d0000000000000000000000000000000000000000000000000000000007bffffffffffffffffffffffffffffffffffffffffffffffffffffffff19166020820180517bffffffffffffffffffffffffffffffffffffffffffffffffffffffff838183161783525050505061154b565b5050565b60008151905060006a636f6e736f6c652e6c6f679050602083016000808483855afa5050505050565b60008135905061158381611c52565b92915050565b60008151905061159881611c69565b92915050565b6000813590506115ad81611c80565b92915050565b6000815190506115c281611c80565b92915050565b6000602082840312156115da57600080fd5b60006115e884828501611574565b91505092915050565b60006020828403121561160357600080fd5b600061161184828501611589565b91505092915050565b60006020828403121561162c57600080fd5b600061163a8482850161159e565b91505092915050565b60006020828403121561165557600080fd5b6000611663848285016115b3565b91505092915050565b611675816119cf565b82525050565b61168481611a17565b82525050565b60006116958261189e565b61169f81856118a9565b93506116af818560208601611a3b565b6116b881611ba0565b840191505092915050565b60006116d06022836118a9565b91506116db82611bb1565b604082019050919050565b60006116f3601f836118a9565b91506116fe82611c00565b602082019050919050565b60006117166017836118a9565b915061172182611c29565b602082019050919050565b61173581611a0d565b82525050565b6000602082019050611750600083018461166c565b92915050565b600060608201905061176b600083018661166c565b611778602083018561166c565b611785604083018461172c565b949350505050565b60006040820190506117a2600083018561166c565b6117af602083018461172c565b9392505050565b60006020820190506117cb600083018461167b565b92915050565b600060208201905081810360008301526117eb818461168a565b905092915050565b6000604082019050818103600083015261180d818561168a565b905061181c602083018461172c565b9392505050565b6000602082019050818103600083015261183c816116c3565b9050919050565b6000602082019050818103600083015261185c816116e6565b9050919050565b6000602082019050818103600083015261187c81611709565b9050919050565b6000602082019050611898600083018461172c565b92915050565b600081519050919050565b600082825260208201905092915050565b60006118c582611a0d565b91506118d083611a0d565b9250827fffffffffffffffffffffffffffffffffffffffffffffffffffffffffffffffff0382111561190557611904611b13565b5b828201905092915050565b600061191b82611a0d565b915061192683611a0d565b92508261193657611935611b42565b5b828204905092915050565b600061194c82611a0d565b915061195783611a0d565b9250817fffffffffffffffffffffffffffffffffffffffffffffffffffffffffffffffff04831182151516156119905761198f611b13565b5b828202905092915050565b60006119a682611a0d565b91506119b183611a0d565b9250828210156119c4576119c3611b13565b5b828203905092915050565b60006119da826119ed565b9050919050565b60008115159050919050565b600073ffffffffffffffffffffffffffffffffffffffff82169050919050565b6000819050919050565b6000611a2282611a29565b9050919050565b6000611a34826119ed565b9050919050565b60005b83811015611a59578082015181840152602081019050611a3e565b83811115611a68576000848401525b50505050565b6000611a7982611a0d565b91506000821415611a8d57611a8c611b13565b5b600182039050919050565b60006002820490506001821680611ab057607f821691505b60208210811415611ac457611ac3611b71565b5b50919050565b6000611ad582611a0d565b91507fffffffffffffffffffffffffffffffffffffffffffffffffffffffffffffffff821415611b0857611b07611b13565b5b600182019050919050565b7f4e487b7100000000000000000000000000000000000000000000000000000000600052601160045260246000fd5b7f4e487b7100000000000000000000000000000000000000000000000000000000600052601260045260246000fd5b7f4e487b7100000000000000000000000000000000000000000000000000000000600052602260045260246000fd5b6000601f19601f8301169050919050565b7f736f7272792074696d65206861732070617373656420666f72206465706f736960008201527f7473000000000000000000000000000000000000000000000000000000000000602082015250565b7f62616c616e636573206e65656420746f206265206d6f7265207468616e203000600082015250565b7f736f72727920636f6e747261637420697320656d707479000000000000000000600082015250565b611c5b816119cf565b8114611c6657600080fd5b50565b611c72816119e1565b8114611c7d57600080fd5b50565b611c8981611a0d565b8114611c9457600080fd5b5056fea2646970667358221220dd8538e2a22e56f0ccc892ee5da36fddbd0fe55e1089527045f12b5136f9380b64736f6c63430008030033",
  "linkReferences": {},
  "deployedLinkReferences": {}
}