{
  "_format": "hh-sol-artifact-1",
  "contractName": "Bank",
  "sourceName": "contracts/Bank.sol",
  "abi": [
    {
      "inputs": [
        {
          "internalType": "contract DaiToken",
          "name": "_daiToken",
          "type": "address"
        },
        {
          "internalType": "uint256",
          "name": "_amount",
          "type": "uint256"
        }
      ],
      "stateMutability": "nonpayable",
      "type": "constructor"
    },
    {
      "inputs": [],
      "name": "daiToken",
      "outputs": [
        {
          "internalType": "contract DaiToken",
          "name": "",
          "type": "address"
        }
      ],
      "stateMutability": "view",
      "type": "function"
    },
    {
      "inputs": [
        {
          "internalType": "uint256",
          "name": "_amount",
          "type": "uint256"
        }
      ],
      "name": "depositRewards",
      "outputs": [],
      "stateMutability": "nonpayable",
      "type": "function"
    },
    {
      "inputs": [],
      "name": "name",
      "outputs": [
        {
          "internalType": "string",
          "name": "",
          "type": "string"
        }
      ],
      "stateMutability": "view",
      "type": "function"
    }
  ],
  "bytecode": "0x60806040523480156200001157600080fd5b5060405162000db438038062000db48339818101604052810190620000379190620004d6565b6040518060400160405280600481526020017f42616e6b000000000000000000000000000000000000000000000000000000008152506000908051906020019062000084929190620003f8565b5033600160006101000a81548173ffffffffffffffffffffffffffffffffffffffff021916908373ffffffffffffffffffffffffffffffffffffffff16021790555081600260006101000a81548173ffffffffffffffffffffffffffffffffffffffff021916908373ffffffffffffffffffffffffffffffffffffffff160217905550620002256040518060400160405280601681526020017f62616c616e6365206f662061646d696e20697320257300000000000000000000815250600260009054906101000a900473ffffffffffffffffffffffffffffffffffffffff1673ffffffffffffffffffffffffffffffffffffffff166370a08231600160009054906101000a900473ffffffffffffffffffffffffffffffffffffffff166040518263ffffffff1660e01b8152600401620001c09190620005a6565b60206040518083038186803b158015620001d957600080fd5b505afa158015620001ee573d6000803e3d6000fd5b505050506040513d601f19601f8201168201806040525081019062000214919062000517565b6200032960201b620002831760201c565b620003216040518060400160405280601981526020017f62616c616e6365206f6620636f6e747261637420697320257300000000000000815250600260009054906101000a900473ffffffffffffffffffffffffffffffffffffffff1673ffffffffffffffffffffffffffffffffffffffff166370a08231306040518263ffffffff1660e01b8152600401620002bc9190620005a6565b60206040518083038186803b158015620002d557600080fd5b505afa158015620002ea573d6000803e3d6000fd5b505050506040513d601f19601f8201168201806040525081019062000310919062000517565b6200032960201b620002831760201c565b505062000745565b620003cb828260405160240162000342929190620005c3565b6040516020818303038152906040527f9710a9d0000000000000000000000000000000000000000000000000000000007bffffffffffffffffffffffffffffffffffffffffffffffffffffffff19166020820180517bffffffffffffffffffffffffffffffffffffffffffffffffffffffff8381831617835250505050620003cf60201b60201c565b5050565b60008151905060006a636f6e736f6c652e6c6f679050602083016000808483855afa5050505050565b82805462000406906200069b565b90600052602060002090601f0160209004810192826200042a576000855562000476565b82601f106200044557805160ff191683800117855562000476565b8280016001018555821562000476579182015b828111156200047557825182559160200191906001019062000458565b5b50905062000485919062000489565b5090565b5b80821115620004a45760008160009055506001016200048a565b5090565b600081519050620004b98162000711565b92915050565b600081519050620004d0816200072b565b92915050565b60008060408385031215620004ea57600080fd5b6000620004fa85828601620004a8565b92505060206200050d85828601620004bf565b9150509250929050565b6000602082840312156200052a57600080fd5b60006200053a84828501620004bf565b91505092915050565b6200054e8162000613565b82525050565b60006200056182620005f7565b6200056d818562000602565b93506200057f81856020860162000665565b6200058a8162000700565b840191505092915050565b620005a0816200065b565b82525050565b6000602082019050620005bd600083018462000543565b92915050565b60006040820190508181036000830152620005df818562000554565b9050620005f0602083018462000595565b9392505050565b600081519050919050565b600082825260208201905092915050565b600062000620826200063b565b9050919050565b6000620006348262000613565b9050919050565b600073ffffffffffffffffffffffffffffffffffffffff82169050919050565b6000819050919050565b60005b838110156200068557808201518184015260208101905062000668565b8381111562000695576000848401525b50505050565b60006002820490506001821680620006b457607f821691505b60208210811415620006cb57620006ca620006d1565b5b50919050565b7f4e487b7100000000000000000000000000000000000000000000000000000000600052602260045260246000fd5b6000601f19601f8301169050919050565b6200071c8162000627565b81146200072857600080fd5b50565b62000736816200065b565b81146200074257600080fd5b50565b61065f80620007556000396000f3fe608060405234801561001057600080fd5b50600436106100415760003560e01c806306fdde03146100465780638bdf67f214610064578063be22f54614610080575b600080fd5b61004e61009e565b60405161005b919061047c565b60405180910390f35b61007e6004803603810190610079919061039b565b61012c565b005b61008861025d565b6040516100959190610461565b60405180910390f35b600080546100ab90610589565b80601f01602080910402602001604051908101604052809291908181526020018280546100d790610589565b80156101245780601f106100f957610100808354040283529160200191610124565b820191906000526020600020905b81548152906001019060200180831161010757829003601f168201915b505050505081565b600160009054906101000a900473ffffffffffffffffffffffffffffffffffffffff1673ffffffffffffffffffffffffffffffffffffffff163373ffffffffffffffffffffffffffffffffffffffff161461018657600080fd5b600260009054906101000a900473ffffffffffffffffffffffffffffffffffffffff1673ffffffffffffffffffffffffffffffffffffffff166323b872dd600160009054906101000a900473ffffffffffffffffffffffffffffffffffffffff1630846040518463ffffffff1660e01b81526004016102079392919061042a565b602060405180830381600087803b15801561022157600080fd5b505af1158015610235573d6000803e3d6000fd5b505050506040513d601f19601f820116820180604052508101906102599190610372565b5050565b600260009054906101000a900473ffffffffffffffffffffffffffffffffffffffff1681565b61031b828260405160240161029992919061049e565b6040516020818303038152906040527f9710a9d0000000000000000000000000000000000000000000000000000000007bffffffffffffffffffffffffffffffffffffffffffffffffffffffff19166020820180517bffffffffffffffffffffffffffffffffffffffffffffffffffffffff838183161783525050505061031f565b5050565b60008151905060006a636f6e736f6c652e6c6f679050602083016000808483855afa5050505050565b600081519050610357816105fb565b92915050565b60008135905061036c81610612565b92915050565b60006020828403121561038457600080fd5b600061039284828501610348565b91505092915050565b6000602082840312156103ad57600080fd5b60006103bb8482850161035d565b91505092915050565b6103cd816104ea565b82525050565b6103dc81610532565b82525050565b60006103ed826104ce565b6103f781856104d9565b9350610407818560208601610556565b610410816105ea565b840191505092915050565b61042481610528565b82525050565b600060608201905061043f60008301866103c4565b61044c60208301856103c4565b610459604083018461041b565b949350505050565b600060208201905061047660008301846103d3565b92915050565b6000602082019050818103600083015261049681846103e2565b905092915050565b600060408201905081810360008301526104b881856103e2565b90506104c7602083018461041b565b9392505050565b600081519050919050565b600082825260208201905092915050565b60006104f582610508565b9050919050565b60008115159050919050565b600073ffffffffffffffffffffffffffffffffffffffff82169050919050565b6000819050919050565b600061053d82610544565b9050919050565b600061054f82610508565b9050919050565b60005b83811015610574578082015181840152602081019050610559565b83811115610583576000848401525b50505050565b600060028204905060018216806105a157607f821691505b602082108114156105b5576105b46105bb565b5b50919050565b7f4e487b7100000000000000000000000000000000000000000000000000000000600052602260045260246000fd5b6000601f19601f8301169050919050565b610604816104fc565b811461060f57600080fd5b50565b61061b81610528565b811461062657600080fd5b5056fea2646970667358221220e24455068f9d570a8c2a4935fd77a77f20f22004d1436807c903f7be1dda56fc64736f6c63430008030033",
  "linkReferences": {},
  "deployedLinkReferences": {}
}