{
  "_format": "hh-sol-artifact-1",
  "contractName": "Bank",
  "sourceName": "contracts/Bank.sol",
  "abi": [
    {
      "inputs": [
        {
          "internalType": "contract DaiToken",
          "name": "_daiToken",
          "type": "address"
        }
      ],
      "stateMutability": "nonpayable",
      "type": "constructor"
    },
    {
      "inputs": [
        {
          "internalType": "address",
          "name": "",
          "type": "address"
        }
      ],
      "name": "balances",
      "outputs": [
        {
          "internalType": "uint256",
          "name": "",
          "type": "uint256"
        }
      ],
      "stateMutability": "view",
      "type": "function"
    },
    {
      "inputs": [],
      "name": "daiToken",
      "outputs": [
        {
          "internalType": "contract DaiToken",
          "name": "",
          "type": "address"
        }
      ],
      "stateMutability": "view",
      "type": "function"
    },
    {
      "inputs": [
        {
          "internalType": "uint256",
          "name": "_amount",
          "type": "uint256"
        }
      ],
      "name": "depositRewards",
      "outputs": [],
      "stateMutability": "nonpayable",
      "type": "function"
    },
    {
      "inputs": [],
      "name": "name",
      "outputs": [
        {
          "internalType": "string",
          "name": "",
          "type": "string"
        }
      ],
      "stateMutability": "view",
      "type": "function"
    },
    {
      "inputs": [
        {
          "internalType": "uint256",
          "name": "_amount",
          "type": "uint256"
        }
      ],
      "name": "stakeTokens",
      "outputs": [],
      "stateMutability": "nonpayable",
      "type": "function"
    },
    {
      "inputs": [],
      "name": "unStakeTokens",
      "outputs": [],
      "stateMutability": "nonpayable",
      "type": "function"
    },
    {
      "inputs": [],
      "name": "withdrawByBank",
      "outputs": [],
      "stateMutability": "nonpayable",
      "type": "function"
    }
  ],
  "bytecode": "0x60806040523480156200001157600080fd5b5060405162001ef038038062001ef0833981810160405281019062000037919062000206565b6040518060400160405280600481526020017f42616e6b0000000000000000000000000000000000000000000000000000000081525060009080519060200190620000849291906200013f565b5033600160006101000a81548173ffffffffffffffffffffffffffffffffffffffff021916908373ffffffffffffffffffffffffffffffffffffffff16021790555080600260006101000a81548173ffffffffffffffffffffffffffffffffffffffff021916908373ffffffffffffffffffffffffffffffffffffffff160217905550426003819055506203f4806004819055506000600a819055506000600b819055506000600c819055506000600d8190555050620002f9565b8280546200014d906200027a565b90600052602060002090601f016020900481019282620001715760008555620001bd565b82601f106200018c57805160ff1916838001178555620001bd565b82800160010185558215620001bd579182015b82811115620001bc5782518255916020019190600101906200019f565b5b509050620001cc9190620001d0565b5090565b5b80821115620001eb576000816000905550600101620001d1565b5090565b6000815190506200020081620002df565b92915050565b6000602082840312156200021957600080fd5b60006200022984828501620001ef565b91505092915050565b60006200023f826200025a565b9050919050565b6000620002538262000232565b9050919050565b600073ffffffffffffffffffffffffffffffffffffffff82169050919050565b600060028204905060018216806200029357607f821691505b60208210811415620002aa57620002a9620002b0565b5b50919050565b7f4e487b7100000000000000000000000000000000000000000000000000000000600052602260045260246000fd5b620002ea8162000246565b8114620002f657600080fd5b50565b611be780620003096000396000f3fe608060405234801561001057600080fd5b506004361061007d5760003560e01c80637547c7a31161005b5780637547c7a3146100da5780637896bf1d146100f65780638bdf67f214610100578063be22f5461461011c5761007d565b806306fdde03146100825780631639c43a146100a057806327e235e3146100aa575b600080fd5b61008a61013a565b604051610097919061166a565b60405180910390f35b6100a86101c8565b005b6100c460048036038101906100bf91906113f8565b610532565b6040516100d1919061174c565b60405180910390f35b6100f460048036038101906100ef919061144a565b61054a565b005b6100fe61070a565b005b61011a6004803603810190610115919061144a565b610f41565b005b61012461137e565b604051610131919061164f565b60405180910390f35b6000805461014790611937565b80601f016020809104026020016040519081016040528092919081815260200182805461017390611937565b80156101c05780601f10610195576101008083540402835291602001916101c0565b820191906000526020600020905b8154815290600101906020018083116101a357829003601f168201915b505050505081565b6000600260009054906101000a900473ffffffffffffffffffffffffffffffffffffffff1673ffffffffffffffffffffffffffffffffffffffff166370a08231306040518263ffffffff1660e01b815260040161022591906115d4565b60206040518083038186803b15801561023d57600080fd5b505afa158015610251573d6000803e3d6000fd5b505050506040513d601f19601f820116820180604052508101906102759190611473565b905060035460048054610288919061180a565b6102929190611783565b42116102d3576040517f08c379a00000000000000000000000000000000000000000000000000000000081526004016102ca906116ac565b60405180910390fd5b600160009054906101000a900473ffffffffffffffffffffffffffffffffffffffff1673ffffffffffffffffffffffffffffffffffffffff163373ffffffffffffffffffffffffffffffffffffffff1614610363576040517f08c379a000000000000000000000000000000000000000000000000000000000815260040161035a9061172c565b60405180910390fd5b6000600260009054906101000a900473ffffffffffffffffffffffffffffffffffffffff1673ffffffffffffffffffffffffffffffffffffffff166370a08231306040518263ffffffff1660e01b81526004016103c091906115d4565b60206040518083038186803b1580156103d857600080fd5b505afa1580156103ec573d6000803e3d6000fd5b505050506040513d601f19601f820116820180604052508101906104109190611473565b1415610451576040517f08c379a00000000000000000000000000000000000000000000000000000000081526004016104489061170c565b60405180910390fd5b6000600d54141561052f57600260009054906101000a900473ffffffffffffffffffffffffffffffffffffffff1673ffffffffffffffffffffffffffffffffffffffff1663a9059cbb600160009054906101000a900473ffffffffffffffffffffffffffffffffffffffff16836040518363ffffffff1660e01b81526004016104db929190611626565b602060405180830381600087803b1580156104f557600080fd5b505af1158015610509573d6000803e3d6000fd5b505050506040513d601f19601f8201168201806040525081019061052d9190611421565b505b50565b600e6020528060005260406000206000915090505481565b60045460035461055a9190611783565b421061059b576040517f08c379a00000000000000000000000000000000000000000000000000000000081526004016105929061168c565b60405180910390fd5b600260009054906101000a900473ffffffffffffffffffffffffffffffffffffffff1673ffffffffffffffffffffffffffffffffffffffff166323b872dd3330846040518463ffffffff1660e01b81526004016105fa939291906115ef565b602060405180830381600087803b15801561061457600080fd5b505af1158015610628573d6000803e3d6000fd5b505050506040513d601f19601f8201168201806040525081019061064c9190611421565b5080600e60003373ffffffffffffffffffffffffffffffffffffffff1673ffffffffffffffffffffffffffffffffffffffff168152602001908152602001600020546106989190611783565b600e60003373ffffffffffffffffffffffffffffffffffffffff1673ffffffffffffffffffffffffffffffffffffffff16815260200190815260200160002081905550806009546106e99190611783565b600981905550600a600081548092919061070290611969565b919050555050565b600354600260045461071c919061180a565b6107269190611783565b421015610768576040517f08c379a000000000000000000000000000000000000000000000000000000000815260040161075f906116cc565b60405180910390fd5b6000600e60003373ffffffffffffffffffffffffffffffffffffffff1673ffffffffffffffffffffffffffffffffffffffff16815260200190815260200160002054116107ea576040517f08c379a00000000000000000000000000000000000000000000000000000000081526004016107e1906116ec565b60405180910390fd5b60035460026004546107fc919061180a565b6108069190611783565b4211156109bb576000600954600654600e60003373ffffffffffffffffffffffffffffffffffffffff1673ffffffffffffffffffffffffffffffffffffffff1681526020019081526020016000205461085f919061180a565b61086991906117d9565b9050600260009054906101000a900473ffffffffffffffffffffffffffffffffffffffff1673ffffffffffffffffffffffffffffffffffffffff1663a9059cbb3383600e60003373ffffffffffffffffffffffffffffffffffffffff1673ffffffffffffffffffffffffffffffffffffffff168152602001908152602001600020546108f59190611783565b6040518363ffffffff1660e01b8152600401610912929190611626565b602060405180830381600087803b15801561092c57600080fd5b505af1158015610940573d6000803e3d6000fd5b505050506040513d601f19601f820116820180604052508101906109649190611421565b506003546003600454610977919061180a565b6109819190611783565b4210156109b957600b600081548092919061099b90611969565b9190505550600c60008154809291906109b390611969565b91905055505b505b60035460036004546109cd919061180a565b6109d79190611783565b421115610c17576000600b54600a546109f09190611864565b90506000600b541480610a035750600181115b15610b18576000600954600754600e60003373ffffffffffffffffffffffffffffffffffffffff1673ffffffffffffffffffffffffffffffffffffffff16815260200190815260200160002054610a5a919061180a565b610a6491906117d9565b9050600260009054906101000a900473ffffffffffffffffffffffffffffffffffffffff1673ffffffffffffffffffffffffffffffffffffffff1663a9059cbb33836040518363ffffffff1660e01b8152600401610ac3929190611626565b602060405180830381600087803b158015610add57600080fd5b505af1158015610af1573d6000803e3d6000fd5b505050506040513d601f19601f82011682018060405250810190610b159190611421565b50505b6001811415610bda5760006007549050600260009054906101000a900473ffffffffffffffffffffffffffffffffffffffff1673ffffffffffffffffffffffffffffffffffffffff1663a9059cbb33836040518363ffffffff1660e01b8152600401610b85929190611626565b602060405180830381600087803b158015610b9f57600080fd5b505af1158015610bb3573d6000803e3d6000fd5b505050506040513d601f19601f82011682018060405250810190610bd79190611421565b50505b60035460048054610beb919061180a565b610bf59190611783565b421015610c1557600c6000815480929190610c0f90611969565b91905055505b505b60035460048054610c28919061180a565b610c329190611783565b421115610e72576000600c54600a54610c4b9190611864565b90506000600c541480610c5e5750600181115b15610d73576000600954600854600e60003373ffffffffffffffffffffffffffffffffffffffff1673ffffffffffffffffffffffffffffffffffffffff16815260200190815260200160002054610cb5919061180a565b610cbf91906117d9565b9050600260009054906101000a900473ffffffffffffffffffffffffffffffffffffffff1673ffffffffffffffffffffffffffffffffffffffff1663a9059cbb33836040518363ffffffff1660e01b8152600401610d1e929190611626565b602060405180830381600087803b158015610d3857600080fd5b505af1158015610d4c573d6000803e3d6000fd5b505050506040513d601f19601f82011682018060405250810190610d709190611421565b50505b6001811415610e355760006008549050600260009054906101000a900473ffffffffffffffffffffffffffffffffffffffff1673ffffffffffffffffffffffffffffffffffffffff1663a9059cbb33836040518363ffffffff1660e01b8152600401610de0929190611626565b602060405180830381600087803b158015610dfa57600080fd5b505af1158015610e0e573d6000803e3d6000fd5b505050506040513d601f19601f82011682018060405250810190610e329190611421565b50505b60035460048054610e46919061180a565b610e509190611783565b421115610e7057600d6000815480929190610e6a90611969565b91905055505b505b600e60003373ffffffffffffffffffffffffffffffffffffffff1673ffffffffffffffffffffffffffffffffffffffff16815260200190815260200160002054600e60003373ffffffffffffffffffffffffffffffffffffffff1673ffffffffffffffffffffffffffffffffffffffff16815260200190815260200160002054610efc9190611864565b600e60003373ffffffffffffffffffffffffffffffffffffffff1673ffffffffffffffffffffffffffffffffffffffff16815260200190815260200160002081905550565b600160009054906101000a900473ffffffffffffffffffffffffffffffffffffffff1673ffffffffffffffffffffffffffffffffffffffff163373ffffffffffffffffffffffffffffffffffffffff1614610f9b57600080fd5b600260009054906101000a900473ffffffffffffffffffffffffffffffffffffffff1673ffffffffffffffffffffffffffffffffffffffff166323b872dd600160009054906101000a900473ffffffffffffffffffffffffffffffffffffffff1630846040518463ffffffff1660e01b815260040161101c939291906115ef565b602060405180830381600087803b15801561103657600080fd5b505af115801561104a573d6000803e3d6000fd5b505050506040513d601f19601f8201168201806040525081019061106e9190611421565b50600260009054906101000a900473ffffffffffffffffffffffffffffffffffffffff1673ffffffffffffffffffffffffffffffffffffffff166370a08231306040518263ffffffff1660e01b81526004016110ca91906115d4565b60206040518083038186803b1580156110e257600080fd5b505afa1580156110f6573d6000803e3d6000fd5b505050506040513d601f19601f8201168201806040525081019061111a9190611473565b60058190555060146064600260009054906101000a900473ffffffffffffffffffffffffffffffffffffffff1673ffffffffffffffffffffffffffffffffffffffff166370a08231306040518263ffffffff1660e01b815260040161117f91906115d4565b60206040518083038186803b15801561119757600080fd5b505afa1580156111ab573d6000803e3d6000fd5b505050506040513d601f19601f820116820180604052508101906111cf9190611473565b6111d991906117d9565b6111e3919061180a565b600681905550601e6064600260009054906101000a900473ffffffffffffffffffffffffffffffffffffffff1673ffffffffffffffffffffffffffffffffffffffff166370a08231306040518263ffffffff1660e01b815260040161124891906115d4565b60206040518083038186803b15801561126057600080fd5b505afa158015611274573d6000803e3d6000fd5b505050506040513d601f19601f820116820180604052508101906112989190611473565b6112a291906117d9565b6112ac919061180a565b60078190555060326064600260009054906101000a900473ffffffffffffffffffffffffffffffffffffffff1673ffffffffffffffffffffffffffffffffffffffff166370a08231306040518263ffffffff1660e01b815260040161131191906115d4565b60206040518083038186803b15801561132957600080fd5b505afa15801561133d573d6000803e3d6000fd5b505050506040513d601f19601f820116820180604052508101906113619190611473565b61136b91906117d9565b611375919061180a565b60088190555050565b600260009054906101000a900473ffffffffffffffffffffffffffffffffffffffff1681565b6000813590506113b381611b6c565b92915050565b6000815190506113c881611b83565b92915050565b6000813590506113dd81611b9a565b92915050565b6000815190506113f281611b9a565b92915050565b60006020828403121561140a57600080fd5b6000611418848285016113a4565b91505092915050565b60006020828403121561143357600080fd5b6000611441848285016113b9565b91505092915050565b60006020828403121561145c57600080fd5b600061146a848285016113ce565b91505092915050565b60006020828403121561148557600080fd5b6000611493848285016113e3565b91505092915050565b6114a581611898565b82525050565b6114b4816118e0565b82525050565b60006114c582611767565b6114cf8185611772565b93506114df818560208601611904565b6114e881611a3f565b840191505092915050565b6000611500602283611772565b915061150b82611a50565b604082019050919050565b6000611523601883611772565b915061152e82611a9f565b602082019050919050565b6000611546601783611772565b915061155182611ac8565b602082019050919050565b6000611569601f83611772565b915061157482611af1565b602082019050919050565b600061158c601783611772565b915061159782611b1a565b602082019050919050565b60006115af601183611772565b91506115ba82611b43565b602082019050919050565b6115ce816118d6565b82525050565b60006020820190506115e9600083018461149c565b92915050565b6000606082019050611604600083018661149c565b611611602083018561149c565b61161e60408301846115c5565b949350505050565b600060408201905061163b600083018561149c565b61164860208301846115c5565b9392505050565b600060208201905061166460008301846114ab565b92915050565b6000602082019050818103600083015261168481846114ba565b905092915050565b600060208201905081810360008301526116a5816114f3565b9050919050565b600060208201905081810360008301526116c581611516565b9050919050565b600060208201905081810360008301526116e581611539565b9050919050565b600060208201905081810360008301526117058161155c565b9050919050565b600060208201905081810360008301526117258161157f565b9050919050565b60006020820190508181036000830152611745816115a2565b9050919050565b600060208201905061176160008301846115c5565b92915050565b600081519050919050565b600082825260208201905092915050565b600061178e826118d6565b9150611799836118d6565b9250827fffffffffffffffffffffffffffffffffffffffffffffffffffffffffffffffff038211156117ce576117cd6119b2565b5b828201905092915050565b60006117e4826118d6565b91506117ef836118d6565b9250826117ff576117fe6119e1565b5b828204905092915050565b6000611815826118d6565b9150611820836118d6565b9250817fffffffffffffffffffffffffffffffffffffffffffffffffffffffffffffffff0483118215151615611859576118586119b2565b5b828202905092915050565b600061186f826118d6565b915061187a836118d6565b92508282101561188d5761188c6119b2565b5b828203905092915050565b60006118a3826118b6565b9050919050565b60008115159050919050565b600073ffffffffffffffffffffffffffffffffffffffff82169050919050565b6000819050919050565b60006118eb826118f2565b9050919050565b60006118fd826118b6565b9050919050565b60005b83811015611922578082015181840152602081019050611907565b83811115611931576000848401525b50505050565b6000600282049050600182168061194f57607f821691505b6020821081141561196357611962611a10565b5b50919050565b6000611974826118d6565b91507fffffffffffffffffffffffffffffffffffffffffffffffffffffffffffffffff8214156119a7576119a66119b2565b5b600182019050919050565b7f4e487b7100000000000000000000000000000000000000000000000000000000600052601160045260246000fd5b7f4e487b7100000000000000000000000000000000000000000000000000000000600052601260045260246000fd5b7f4e487b7100000000000000000000000000000000000000000000000000000000600052602260045260246000fd5b6000601f19601f8301169050919050565b7f736f7272792074696d65206861732070617373656420666f72206465706f736960008201527f7473000000000000000000000000000000000000000000000000000000000000602082015250565b7f6e6f74207965742074696d6520746f2077697468647261770000000000000000600082015250565b7f6e6f74207965742074696d6520746f20756e7374616b65000000000000000000600082015250565b7f62616c616e636573206e65656420746f206265206d6f7265207468616e203000600082015250565b7f736f72727920636f6e747261637420697320656d707479000000000000000000600082015250565b7f796f7520617265206e6f742061646d696e000000000000000000000000000000600082015250565b611b7581611898565b8114611b8057600080fd5b50565b611b8c816118aa565b8114611b9757600080fd5b50565b611ba3816118d6565b8114611bae57600080fd5b5056fea2646970667358221220e9acbb1c004cca7ced1075996b8a2112e0e64510c44380e703c778907654707064736f6c63430008030033",
  "linkReferences": {},
  "deployedLinkReferences": {}
}